:0200000460009A
:102000000000022051880060C33300600335006087
:102010003B350060C34800604B4900600000000091
:10202000000000000000000000000000B757006042
:10203000435A006000000000DF690060B772006072
:10204000E1890060E9890060F1890060F989006038
:10205000018A0060098A0060118A0060198A0060A4
:10206000218A0060298A0060318A0060398A006014
:10207000418A0060498A0060518A0060598A006084
:10208000618A0060598B0060598B0060598B006039
:10209000698A0060718A0060798A0060818A0060C4
:1020A000898A0060918A0060998A0060A18A006034
:1020B000A98A0060B18A0060B98A0060C18A0060A4
:1020C000C98A0060D18A0060D98A0060E18A006014
:1020D000E98A0060F18A0060598B0060598B0060CA
:1020E000598B0060598B0060033D00601D3C00600F
:1020F000598B0060598B0060598B0060598B0060D0
:10210000598B0060598B0060598B0060598B0060BF
:10211000598B0060598B0060598B0060598B0060AF
:10212000F98A0060018B0060098B0060118B0060F0
:10213000198B0060598B0060598B0060598B0060CF
:10214000598B0060598B0060598B0060598B00607F
:10215000598B0060598B0060598B0060598B00606F
:10216000598B0060598B0060598B0060598B00605F
:10217000598B0060598B0060598B0060598B00604F
:10218000598B0060598B0060598B0060598B00603F
:10219000598B0060598B0060598B0060598B00602F
:1021A0001D890060598B0060218B0060298B0060C5
:1021B000598B0060598B0060598B0060598B00600F
:1021C000598B0060598B0060598B0060598B0060FF
:1021D000598B006029880060598B0060598B006022
:1021E000598B0060598B0060598B0060598B0060DF
:1021F000318B0060598B0060398B0060418B00602F
:10220000598B0060598B0060498B0060518B0060D6
:10221000598B0060598B0060598B0060598B0060AE
:10222000598B0060598B0060FB870060598B006000
:10223000598B0060598B0060598B0060598B00608E
:10224000598B0060598B0060598B0060598B00607E
:10225000598B0060598B0060CD870060B9870060A2
:10226000598B0060598B0060598B0060598B00605E
:10227000598B0060598B0060598B0060598B00604E
:10228000598B0060598B0060598B0060598B00603E
:10229000598B0060598B0060598B0060598B00602E
:1022A000598B0060598B0060598B0060598B00601E
:1022B000598B0060598B0060598B0060598B00600E
:1022C000598B0060598B0060598B0060598B0060FE
:1022D000598B0060598B0060598B0060598B0060EE
:1022E000598B0060598B0060598B0060598B0060DE
:1022F000598B0060598B0060598B0060598B0060CE
:10230000598B0060598B0060598B0060598B0060BD
:10231000598B0060598B0060598B0060598B0060AD
:10232000598B0060598B0060598B0060598B00609D
:10233000598B0060598B0060598B0060598B00608D
:10234000598B0060598B0060598B0060598B00607D
:10235000598B0060598B0060598B0060598B00606D
:10236000598B0060598B0060598B0060598B00605D
:10237000598B0060598B0060598B0060598B00604D
:10238000598B0060598B0060598B0060598B00603D
:10239000598B0060598B0060598B0060598B00602D
:1023A000598B0060598B0060598B0060598B00601D
:1023B000598B0060598B0060598B0060598B00600D
:1023C000598B0060598B0060598B0060598B0060FD
:1023D000598B0060598B0060598B0060598B0060ED
:1023E000598B0060598B0060598B0060598B0060DD
:1023F000598B0060598B0060598B0060FFFFFFFF15
:1024000070B504460D462646360A04F01F04072E12
:1024100009D340F2D7320FF228010FF2740000F016
:1024200073FDAFF30080DFF88C0400EB86000168D9
:102430000322A240914305FA04F40C43046070BDEA
:10244000463A5C694D585254313035307072675C91
:102450004C515F5254313035324C43443230313874
:10246000303632325C4C5175736572466C696573F7
:102470005C646576696365735C64726976657273C2
:102480005C66736C5F636C6F636B2E6800000000AA
:1024900074657374000000000321B1E710B4029C5E
:1024A00001F00701240104F0100421430160002A17
:1024B00000D0136010BC70470098002801D001992B
:1024C000016070472DE9FC4140F20240FFF7E4FF54
:1024D000164C154D0020019000950346024602213E
:1024E0002046FFF7DBFF134E114F002001900097AD
:1024F0000346024602213046FFF7D0FF41F2B00802
:10250000CDF80480009500231A4602212046FFF7EB
:10251000D3FFCDF80480009700231A4602213046ED
:10252000FFF7CAFFBDE8F381DC821F40EC801F404B
:10253000E0821F40F0801F402DE9FC4140F2024044
:10254000FFF7AAFF00200190DB48009000231A4605
:102550001146DA48FFF7A2FF00200190D84800900A
:1025600000231A461146D748FFF798FF0020019034
:10257000D548009000231A461146D448FFF78EFF35
:1025800000200190D248009000231A461146D148FD
:10259000FFF784FF00200190CF48009000231A46E7
:1025A0001146CE48FFF77AFF00200190CC480090FA
:1025B00000231A461146CB48FFF770FF0020019018
:1025C000C948009000231A461146C848FFF766FF25
:1025D00000200190C648009000231A461146C548C5
:1025E000FFF75CFF00200190C348009000231A46CB
:1025F0001146C248FFF752FFC14CC24D0020019066
:1026000000950346024601462046FFF747FF00209B
:102610000190BD48009000231A461146BB48FFF7C1
:102620003DFF00200190BA48009000231A46114651
:10263000B848FFF733FF00200190B748009000230F
:102640001A461146B548FFF729FF00200190B4480B
:10265000009000231A461146B248FFF71FFF0020E2
:102660000190B148009000231A461146AF48FFF789
:1026700015FF00200190AE48009000231A46114635
:10268000AC48FFF70BFF00200190AB4800900023FF
:102690001A461146DFF80004FFF700FF0020019002
:1026A000DFF8F803009000231A461146DFF8F00324
:1026B000FFF7F4FE00200190DFF8E803009000230C
:1026C0001A461146DFF8E003FFF7E8FE002001900C
:1026D000DFF8D803009000231A461146DFF8D00334
:1026E000FFF7DCFE00200190DFF8C8030090002314
:1026F0001A461146F048FFF7D1FE00200190DFF89E
:102700003404009000231A461146DFF82C04FFF72A
:10271000C5FE00200190DFF82404009000231A4633
:102720001146DFF81C04FFF7B9FE00200190DFF826
:102730001404009000231A461146DFF80C04FFF73A
:10274000ADFE00200190DFF80404009000231A463B
:102750001146DFF8FC03FFF7A1FE00200190DFF82F
:10276000F403009000231A461146DFF8EC03FFF74C
:1027700095FE00200190DFF8E403009000231A4644
:102780001146DFF8DC03FFF789FEDFF8D863DFF8D6
:10279000D873002001900097034602460146304658
:1027A000FFF77CFE00200190F048009000231A46BD
:1027B0001146EF48FFF772FE00200190ED480090AF
:1027C00000231A461146EC48FFF768FE00200190EE
:1027D000EA48009000231A461146E948FFF75EFEDA
:1027E00000200190E748009000231A461146E64871
:1027F000FFF754FE00200190E448009000231A46A1
:102800001146E348FFF74AFE00200190E14800909E
:1028100000231A461146E048FFF740FE00200190D1
:10282000DE48009000231A461146DD48FFF736FEC9
:1028300000200190DB48009000231A461146DA4838
:10284000FFF72CFE00200190D848009000231A4684
:102850001146D748FFF722FE00200190D54800908E
:1028600000231A461146DFF83805FFF717FE00204F
:102870000190DFF83005009000231A461146DFF87A
:102880002805FFF70BFE41F2B008CDF80480009553
:1028900000231A4611462046FFF70EFECDF80480AD
:1028A000009700231A4611463046FFF705FEBDE8A3
:1028B000F381000068C00F4004821F4014801F4055
:1028C00008821F4018801F400C821F401C801F4040
:1028D00010821F4020801F4014821F4024801F4010
:1028E00018821F4028801F401C821F402C801F40E0
:1028F00020821F4030801F4024821F4034801F40B0
:1029000038801F4028821F402C821F403C801F407F
:1029100030821F4040801F4034821F4044801F404F
:1029200038821F4048801F403C821F404C801F401F
:1029300040821F4050801F4044821F40E0B540F25B
:102940000240FFF7A9FD00200190DFF8600400902D
:1029500000231A460521DFF85804FFF79FFD0020E9
:102960000190DFF8500400900023DFF84C2404218C
:10297000DFF84804FFF792FD00200190DFF84004E3
:10298000009000231A460421DFF83804FFF786FD83
:1029900000200190DFF8300400900123DFF82C24A0
:1029A0000421DFF82C04FFF779FD00200190DFF807
:1029B000240400900123DFF820240421DFF81C0404
:1029C000FFF76CFD00200190DFF814040090002355
:1029D000DFF810240421DFF81004FFF75FFD00206A
:1029E0000190DFF8080400900023DFF8042404219C
:1029F000DFF80004FFF752FD00200190DFF8F80334
:102A000000900023DFF8F4230421DFF8F403FFF73C
:102A100045FD00200190DFF8EC0300900023DFF873
:102A2000E8230421DFF8E403FFF738FD00200190DC
:102A3000DFF8DC0300900023DFF8D8230421DFF85F
:102A4000D803FFF72BFD00200190DFF8D0030090A2
:102A50000023DFF8CC230421DFF8C803FFF71EFDB5
:102A600000200190DFF8C00300900023DFF8BC23B2
:102A70000421DFF8BC03FFF711FD00200190DFF80F
:102A8000B40300900023DFF8B0230421DFF8AC0387
:102A9000FFF704FD07BD000054801F4048821F401F
:102AA00058801F404C821F405C801F4050821F4056
:102AB00060801F4054821F4064801F402DE9FC4706
:102AC00040F20240FFF7E8FCDFF87443DFF874538C
:102AD000DFF8746301200190009603462A46032123
:102AE0002046FFF7DBFCDFF86473DFF86483DFF870
:102AF000649301200190CDF80090034642460321E3
:102B00003846FFF7CBFC4DF6B00ACDF804A000968E
:102B100001232A4603212046FFF7CEFCCDF804A06E
:102B2000CDF800900123424603213846FFF7C4FC4C
:102B3000BDE8F38758821F4068801F405C821F40B9
:102B40006C801F4060821F4070801F4064821F4065
:102B500074801F4068821F4078801F406C821F4035
:102B60007C801F4080801F4070821F4074821F4005
:102B700084801F407C821F408C801F4080821F40C9
:102B800090801F4084821F4094801F4088821F4095
:102B900098801F408C821F409C801F4090821F4065
:102BA000A0801F4094821F40A4801F4098821F4035
:102BB000A8801F409C821F40E0B540F20240FFF712
:102BC0006BFC00200190DFF89002009000231A4671
:102BD0000521DFF88802FFF761FC00200190DFF893
:102BE0008002009000231A461146DFF87802FFF7B2
:102BF00055FC00200190DFF87002009000231A4677
:102C00001146DFF86802FFF749FC00200190DFF869
:102C10006002009000231A461146DFF85802FFF7C1
:102C20003DFC00200190DFF85002009000231A467E
:102C30001146DFF84802FFF731FC00200190DFF871
:102C40004002009000231A461146DFF83802FFF7D1
:102C500025FC00200190DFF83002009000231A4686
:102C60001146DFF82802FFF719FC00200190DFF879
:102C70002002009000231A461146DFF81802FFF7E1
:102C80000DFC00200190DFF81002009000231A468E
:102C900011468248FFF702FC002001908048009016
:102CA00000231A4611467F48FFF7F8FB00200190E9
:102CB0007D48009000231A4611467C48FFF7EEFB42
:102CC000002001907A48009000231A461146794866
:102CD000FFF7E4FB002001907748009000231A469C
:102CE00011467648FFF7DAFB002001907448009007
:102CF00000231A4611467348FFF7D0FB00200190CD
:102D00007148009000231A4611467048FFF7C6FB31
:102D1000002001906E48009000231A4611466D482D
:102D2000FFF7BCFB002001906B48009000231A467F
:102D300011466A48FFF7B2FB0020019068480090F6
:102D400000231A4611466748FFF7A8FB00200190B0
:102D50006548009000231A4611466448FFF79EFB21
:102D6000002001906248009000231A4611466148F5
:102D7000FFF794FB002001905F48009000231A4663
:102D800011465E48FFF78AFB002001905C480090E6
:102D900000231A4605215B48FFF780FB07BD0000B2
:102DA000AC801F40A8821F40B8801F40BC821F40DB
:102DB000CC801F40FC821F4024841F400C811F4098
:102DC00000831F4010811F4004831F4028841F4040
:102DD00014811F4008831F4020841F4018811F401A
:102DE0000C831F401C841F401C811F4010831F4008
:102DF00018841F4020811F4014831F4014841F40EB
:102E000024811F4018831F4010841F4028811F40C9
:102E10001C831F400C841F402C811F4020831F40B7
:102E200008841F4030811F4024831F4004841F40BA
:102E300034811F4028831F4000841F4038811F4079
:102E4000FC801F40CC841F40EC821F4000811F404B
:102E5000D0841F40F0821F40B4821F40C4801F40B6
:102E60002C831F403C811F4030831F4040811F4006
:102E700034831F4044811F4038831F4048811F40D6
:102E80003C831F404C811F4040831F4050811F40A6
:102E900044831F4054811F4048831F4058811F4076
:102EA0004C831F405C811F4050831F4060811F4046
:102EB00054831F4064811F4058831F4068811F4016
:102EC0005C831F406C811F4060831F4070811F40E6
:102ED00064831F4074811F4068831F4078811F40B6
:102EE0006C831F407C811F4070831F4080811F4086
:102EF00074831F4084811F4078831F4088811F4056
:102F0000A8831F40B8811F4080B513460A4601467A
:102F10000FF2080000F031F800BEFDE741535345C1
:102F20005254204552524F52202220257320223ADB
:102F30002066696C652022257322204C696E65200D
:102F400022256422200A0000F8B504460D461646E4
:102F50001F46300008D169220FF290010FF2840061
:102F6000FFF7D2FFAFF300803B462A4631462046AA
:102F700001B0BDE8F04000F079B80EB418B5A0B0CB
:102F800004466846802100F0CBF823A90FF219030C
:102F90006A46204600F007F90146684600F073F8DB
:102FA00021B010BC5DF810FB2DE9F04104460D4640
:102FB00016461F464FF000080FE02968481C80287D
:102FC00004D3204600F05FF80020286028682654CB
:102FD0002868401C286008F10108B845EDDBBDE811
:102FE000F08100007465737400000000463A5C696B
:102FF0004D585254313035307072675C4C515F52CD
:1030000054313035324C434432303138303632323C
:103010005C4C5175736572466C6965735C6465766A
:10302000696365735C7574696C69746965735C6602
:10303000736C5F64656275675F636F6E736F6C65F9
:103040002E63000010B50B461446002B01D1002062
:1030500010BD012804D0022802D04FF0FF3010BD6F
:103060000121184600F00FF8204610BD1CB514468B
:103070001A4600908DF8041000232146684600F09F
:10308000B7F9002016BD38B504460D46002C09D10D
:1030900040F23F120FF238010FF22C00FFF734FF1D
:1030A000AFF3008029462046BDE8344010B50C003F
:1030B00007D0002805D0012200F0C4F9002800D074
:1030C0000024204610BD00007465737400000000E9
:1030D000463A5C694D585254313035307072675CF5
:1030E0004C515F5254313035324C434432303138D8
:1030F000303632325C4C5175736572466C6965735B
:103100005C646576696365735C7574696C69746920
:1031100065735C66736C5F6C6F672E630000000004
:10312000002200F0D5B970B404460025284604F802
:10313000010B002A15D00868002816D000282FD0CF
:1031400090FBF3F203FB1200002802D4303001465A
:1031500002E0C04331300146104604F8011B6D1CEB
:10316000ECE7039A086800280FD130202070012076
:1031700017E0612102E01100FBD041210A39081853
:103180000146304604F8011B6D1C002808D0B0FB36
:10319000F3F603FB16000A28EDD230300146F0E7C3
:1031A000284670BC70472DE9F64F8DB00C469A4604
:1031B000002100910D4601910291064605E0012390
:1031C000424601A90E98D047761C96F80080B8F1C7
:1031D000000F00F0E280B8F1250FF0D14FF0010BA5
:1031E0000027384605E007EB8702303901EB420142
:1031F0000F46002840F0D58016F8011FA1F13002DB
:103200000A2AF0D3761E5846F3E716F8011F303924
:103210000A29C0F0CC80761E5846C8E0761E16F803
:10322000018FB8F1640F1AD0B8F1690F17D0B8F157
:10323000660F14D0B8F1460F11D0B8F1780F0ED048
:10324000B8F1580F0BD0B8F16F0F08D0B8F1620F7A
:1032500005D0B8F1700F02D0B8F1750F70D1B8F188
:10326000640F02D0B8F1690F0ED154F8040B03902B
:10327000584600900A23024603A904A8FFF753FF0B
:10328000054604A828440090B8F1580F02D0B8F1C0
:10329000780F13D1B8F1780F01D14FF0000B54F82B
:1032A000040B0290584600901023002202A904A8A3
:1032B000FFF739FF054604A828440090B8F16F0FC6
:1032C00008D0B8F1620F05D0B8F1700F02D0B8F194
:1032D000750F1DD154F8040B0290B8F16F0F01D196
:1032E00008230AE0B8F1620F01D1022305E0B8F12A
:1032F000700F01D1102300E00A23CDF800B00022A6
:1033000002A904A8FFF70FFF054604A8284400906F
:103310007F1B3B46202201A90E98D0470098002829
:103320003FF452AF0E9FD046814699F80000002826
:1033300041D0012319F8012901A93846C047F4E713
:10334000B8F1630F08D154F8040BC0B25B460246D3
:1033500001A90E98D04737E7B8F1730F7FF42FAF6C
:1033600054F8049BB9F1000F3FF42EAF484600F02B
:10337000C9F805467F1B3B46202201A90E98D0477D
:103380000E9FD04699F80000002818D05B4619F827
:10339000012B01A93846C047F4E701980FB0BDE8FA
:1033A000F08F16F8010F2E287FF438AF0020002888
:1033B0007FF435AF29E70E97CDF8009004E70E971C
:1033C00002E7FEE70029816903D041F40021816111
:1033D000704721F40021816170470029816903D081
:1033E00041F480218161704721F48021816170471F
:1033F000F0B585B004460D461646002C08D1FF22D4
:103400000FF278010FF26C00FFF77EFDAFF3008042
:103410002079174F387121683960022810D1684629
:1034200000F007FA009532466946386800F006F960
:1034300001213868FFF7C6FF01213868FFF7CDFF8B
:1034400005B0F0BD38B50346002409480579022DC2
:103450000BD10068002A0A46194602D000F02DFA66
:1034600004E000F046FA044600E00124204632BDA4
:10347000701900207465737400000000463A5C699E
:103480004D585254313035307072675C4C515F5238
:1034900054313035324C43443230313830363232A8
:1034A0005C4C5175736572466C6965735C646576D6
:1034B000696365735C7574696C69746965735C666E
:1034C000736C5F696F2E630062F30F2262F31F4219
:1034D00000B500BF130096469446103928BFA0E8F7
:1034E0000C50FAD85FEA417C28BF0CC048BF40F8B6
:1034F000042BC90728BF20F8022B48BF00F8012B76
:1035000000BDFEE700F10103810704D010F8011BA4
:1035100089B18107FAD10268B2F10131914311F00A
:10352000803F04BF50F8042FF6E710F8011B11B1DB
:1035300010F8011BFBE7C01A7047FEE770B50446A0
:103540000D462646360A04F01F04072E09D340F222
:10355000D7320FF22C01DFF85004FFF7D5FCAFF3A0
:103560000080DFF8540400EB860001680322A240CB
:10357000914305FA04F40C43046070BD00000000A0
:10358000463A5C694D585254313035307072675C40
:103590004C515F5254313035324C43443230313823
:1035A000303632325C4C5175736572466C696573A6
:1035B0005C646576696365735C6472697665727371
:1035C0005C66736C5F636C6F636B2E680000000059
:1035D0000321B3E7816841F002018160816821F035
:1035E00002018160704710B50024092C07D20FF248
:1035F000280151F82410814201D0641CF5E7092C00
:1036000008D38E22DFF8DC13DFF89C03FFF77CFC85
:10361000AFF30080204610BD0000000000401840BD
:103620000080184000C018400000194000401940B8
:103630000080194000C0194000001A402DE9FC41EB
:1036400006460C461546002C08D1E4220FF2F8314C
:103650000FF2EC30FFF758FCAFF300802068002831
:1036600008D1E5220FF2E0310FF2D430FFF74CFC25
:10367000AFF30080207A042808DDE7220FF2C8317A
:103680000FF2BC30FFF740FCAFF30080607A0428F3
:1036900008DDE8220FF2B0310FF2A430FFF734FC5E
:1036A000AFF30080226800273946042328460D46E0
:1036B00026E003FB01FCB0FBFCFCE6461FFA8EFE95
:1036C000BEF1000F01D14FF0010C1FFA8CFC0CFB76
:1036D00003FEB0FBFEFEAEEB010E0CF1010808FB91
:1036E00003F8B0FBF8F8A1EB0801714502D28E4651
:1036F0000CF1010C724502D372461F4665465B1CF5
:103700002168202BD5D96420B1FBF0F000EB4000FC
:10371000904202D240F2215089E03046FFF763FF29
:103720000FF2743131F91000FFF752FF3046FFF706
:1037300051FF3169381F042801D241F40031DFF80C
:10374000C80201407F1E3F0607F0F8570F43ADB295
:10375000C5F30C052F433761306920F0005030610C
:10376000B169DFF8A80201402079E27B120202F47D
:10377000E0620243A37B9B0003F004031A4311435E
:103780006279012A07D1002802D021F4006106E005
:1037900041F4006103E0002801D041F01001B16163
:1037A000306920F40050E179490301F400510843E5
:1037B0003061607A217A41EA0041F162B06A40F0FA
:1037C0008800B062B06A40F44040B062DFF8401256
:1037D000706A627B120102F01002237B5B0103F02E
:1037E00020031A4310437062A07A002803D0706A45
:1037F00040F008007062E07A002803D0706A40F060
:1038000001007062A079002801D0DFF80812706909
:1038100001437161B169207C002801D041F400218D
:10382000607C002801D041F48021B1610020BDE816
:10383000F68110B5040009D14FF4F1720FF208219E
:103840000FF2FC10FFF760FBAFF300804FF4E130A4
:103850002060002020716071A071E07120726072A0
:10386000A072E07260732073A073E07320746074C0
:1038700010BD01464869896A090C01F0C30108437B
:10388000704710B50C46816A21F44031220402F4DD
:103890004032114381624269DFF87C110A40DFF84F
:1038A000701121400A434261FFF7E3FF044202D056
:1038B00040F21A5010BD002010BD70B505460C46F0
:1038C0001646002C10D140F2A9220FF27C110FF203
:1038D0007010FFF719FBAFF3008005E06869000284
:1038E000FCD514F8010BE8613046461E0028F5D1DE
:1038F00070BDF8B506460D461746002D09D14FF4A8
:103900002E720FF244110FF23810FFF7FDFAAFF3E9
:103910000080B069010503D400F01200022801D133
:10392000012405E0002403E000F07F0005F8010B0E
:103930003846471E00282FD0F06AC0F302600028E6
:103940002CD13046FFF795FF01030DD4410313D46A
:10395000810319D4C003EFD54FF480313046FFF70F
:1039600090FF4FF4A460F2BD4FF400213046FFF702
:1039700088FF40F21D50F2BD4FF480213046FFF722
:1039800080FF40F21E50F2BD4FF400313046FFF789
:1039900078FF40F21F50F2BD0020F2BD002CF0690C
:1039A000C2D105F8010BC3E7403A00601B4A5168D9
:1039B0001B48526A1047000068C00F40174A9168C0
:1039C0001848526A1047154AD1681748526A10477A
:1039D000124A11691548526A1047104A5169144831
:1039E000526A1047483A00600C4A91691148526A7D
:1039F00010470A4AD1691048526A1047074A116AAB
:103A00000E48526A1047000000E0FFE0E8F8FFFFB0
:103A100000C01FC000C01FE0FF3FE03FC4190020EE
:103A2000004018400080184000C0184000001940B5
:103A3000004019400080194000C0194000001A40A1
:103A40007465737400000000463A5C694D58525426
:103A5000313035307072675C4C515F5254313035C3
:103A6000324C434432303138303632325C4C51754E
:103A7000736572466C6965735C64657669636573CA
:103A80005C647269766572735C66736C5F6C70758A
:103A90006172742E63000000FFFF18051C000C000B
:103AA0001801020306031A050E06000070B504464D
:103AB000A40E0246120A02F01F0200F0FF0303F1F7
:103AC000804303F57C231D68C0F34C369640B54314
:103AD00001EA5031C1F30C01914029431960202CB7
:103AE00009D94FF464720FF24C610FF24060FFF796
:103AF0000BFAAFF30080202C05D0DFF8D805006862
:103B0000E040C007F9D470BD70B50446A40E02466B
:103B1000120A02F01F0200F0FF0303F1804303F5D5
:103B20007C231D68C0F34C369640B54301EA503102
:103B3000C1F30C01914029431960202C09D940F2AE
:103B4000B5320FF2F0510FF2E450FFF7DDF9AFF3A9
:103B50000080202C05D0DFF87C050068E040C0071D
:103B6000F9D470BDDFF870050068C00602D5DFF833
:103B70006C057047DFF868050068704710B5446849
:103B80002468A04710BD41688968084742681269E7
:103B900010474268526910474268126810474168EE
:103BA00089680847DFF83C15416070470165704738
:103BB0000069DFF8341508407047DFF82C25114004
:103BC00081617047012141607047006900F00F007A
:103BD000704781617047C0F80011704730B40568C4
:103BE000DFF808452540120202F440722A43890595
:103BF00001F48001114341EA8321016030BC704728
:103C00000029D0F8A01104D021F08041C0F8A01103
:103C1000704741F08041C0F8A011704700F0EBBD43
:103C2000F8B568460FF2C051102200F04BFE68460E
:103C300000F0D6FE0221DFF8B804FFF737FF0421B9
:103C4000DFF8B004FFF760FF0121DFF8AC04FFF7F5
:103C50005BFF05B000BD7047DFF8A034002804D03A
:103C600001220421184601F061B8002204211846FF
:103C700001F05CB880B588B001A801F078FA42F292
:103C80001070039001208DF806008DF807000146A2
:103C9000DFF86C04FFF70AFF0021DFF86804FFF784
:103CA00033FFFFF75FFF024601A9DFF85C0401F074
:103CB00074FA0021DFF85404FFF7F8FE0021DFF862
:103CC0005004FFF721FF0FF2BC40006800906A46E5
:103CD0000421DFF8280401F002F809B000BD38B56E
:103CE000DFF834442046FFF763FF054629462046A7
:103CF000FFF763FFA80503D50120DFF82014087043
:103D000031BDECE72DE9F043A1B019A80FF27841DD
:103D1000202200F0D7FDFFF783FFFEF70FFEFEF72E
:103D2000CDFEFEF749FFFFF7A5FF13A80FF2C8412C
:103D3000182200F0C7FDDFF8E04313A9204601F088
:103D400052FC0DA80FF2C841182200F0BBFDDFF8AD
:103D5000D053284601F067FD08A80FF2CC41142289
:103D600000F0B0FD00212846FFF735FF40F20F10AC
:103D7000009040F2DF1300221146284601F0A1FD19
:103D80004FF6FF710020009003460A46284601F0D6
:103D900061FD03A80FF2A441142200F093FD01215C
:103DA000284601F0CDFD01212846FFF729FF002319
:103DB000022219462846FFF711FFDFF86863002347
:103DC0001A460DA93046FFF7D9FE0DA906F10C00E1
:103DD000FFF7E2FE06F10C00FFF7E1FE002709E025
:103DE000DFF84403C7EB072100EB81213046FFF7E2
:103DF000CDFE7F1C042FF3D33046FFF7C4FE2046D0
:103E0000FFF7D0FE0120019000200090FA234FF42C
:103E1000DC722C21282000F0C5F8012001904FF41D
:103E20007F400090E6234FF4D27240213C2000F006
:103E3000B9F8012001904FF47F000090FA234FF46D
:103E4000DC722C21282000F0CFF8012001904FF4E3
:103E50007F0000902C234FF4DC72FA21282000F020
:103E6000C3F8012001904FF47F400090F0234FF4FD
:103E7000D7723621322001F0E5FD012000904FF489
:103E80007F0364228821F02001F00CFE0FF2183726
:103E90006FF07F4801200190CDF800804FF47F0340
:103EA0003A467321B82001F0FEFE01200190CDF8C2
:103EB0000080002319AA8C21D02001F0D8FEDFF861
:103EC000549249462046FFF771FE4FF47A7001F094
:103ED000F5FF02F0B4F80FF2E420FFF74EF802A964
:103EE0003046FFF756FE0028F9D10298099008A93C
:103EF000284601F0C2FCCDF8109003A9284601F035
:103F0000F2FC2846FFF75EFE2846FFF75EFEC0077C
:103F1000FAD501212846FFF75CFE4FF400712046D8
:103F2000FFF74BFE49462046FFF740FE0299304618
:103F3000FFF72CFE2046FFF73BFE8005FAD5002058
:103F400001904FF47F000090FF233A460521B820EE
:103F500001F0A9FE002002F01FF900280BD000207C
:103F60000190CDF800804FF47F030FF26C221921ED
:103F7000C82001F098FE49462046FFF717FE0221AF
:103F8000002002F009FB0221084602F005FBA6E72B
:103F900010B4604BC1EB011403EBC41141F82020B5
:103FA00010BC7047F0B4049D059C06E047F826500D
:103FB000761C06E0F0BC7047491C5E1CB142F9D289
:103FC0000646571CBE42F7D2524FC1EB011C07EB0D
:103FD000CC17A446BCF1000FE8D157F826C045EA3B
:103FE0000C0C47F826C0E3E72DE9FE4F074688464C
:103FF00011460C9A0D98002425463E468C4666458F
:1040000015D1591C884562D24249C8EB081401EB0E
:10401000C4113C46050005D151F82450154341F820
:10402000245001E041F8242008F10108E9E7464660
:104030009C46664513D14B1C9F4248D2354BC8EB7A
:10404000081403EBC413040005D153F827401443AC
:1040500043F8274001E043F827207F1CEBE7C91B0A
:10406000A3EB0803002902DD4FF0010A02E04FF044
:10407000FF3A4942002B02DD4FF0010902E04FF008
:10408000FF395B428B4201DA084600E018462646BB
:104090000C920191009383460BF10100B04216D3BC
:1040A0000C9A414689B2384680B2FFF771FF0198F9
:1040B000041900984519A34502D2A4EB0B045744F8
:1040C000AB4502D2A5EB0B05C844761CE4E7BDE87E
:1040D000F78F000048C00F4070820D4000366E011F
:1040E0006019002001000200000F0002FFF0BFFF76
:1040F00038EF008038EC008018F7008000801B400B
:104100003832008038F3078000003F403C6900806F
:104110003CEB008000F08F8100802B40041A0020CF
:1041200000402B402C1900200000808174657374BE
:1041300000000000463A5C694D5852543130353029
:104140007072675C4C515F5254313035324C43448D
:1041500032303138303632325C4C517573657246CC
:104160006C6965735C646576696365735C647269C8
:10417000766572735C66736C5F636C6F636B2E68DD
:1041800000000000010100004C6F6E67516975006E
:10419000000000000000000000000000000000001F
:1041A0000000000000000000B1B1BEA9C1FAC7F1D3
:1041B000D6C7C4DCBFC6BCBC0000000043616D654F
:1041C00072612064656D6F207374617274696E67CB
:1041D0002E2E2E0D0A000000BBFAC6F7C8CBC6F47F
:1041E000B6AFD6D0000000001F080000000000009D
:1041F0000000000000000000E00110012904080A8E
:10420000040200000000000300F08F8103000000A2
:104210005955595602000000E0011001C003020088
:10422000030000001E00000012000000000000005B
:104230000000000000000000C003000004000000B7
:1042400000000000000000008007E00110010000F5
:10425000010009D4012200F01F0002FA00F0DFF88B
:10426000A025490942F82100704770B504460D4663
:104270002646360A04F01F04072E09D340F2D7322F
:104280000FF29C510FF29050FEF73EFEAFF300800C
:10429000DFF8700500EB860001680322A24091431D
:1042A00005FA04F40C43046070BD0321DDE700212E
:1042B000DBE780B510F1800F01D1012002BDFFF7CF
:1042C000C7FF002002BD10B504460122114600F0D0
:1042D00036F9A06C40F00040A06410BD816C21F064
:1042E000004181640022012129E110B50024DFF89A
:1042F0001815002C03D1884201D00124F9E7002CC5
:1043000008D090220FF268510FF20C50FEF7FCFD1E
:10431000AFF30080204610BD814201D3081A7047D8
:10432000401D401A7047401C052800D300207047EC
:104330000846417D807DEFE710B50C46A17D54F81D
:104340002120617E00F0D0F8A07DFFF7ECFFA07582
:10435000207E401C2076607E80F00100607610BDDB
:1043600070B506460C0008D1C9220FF204510FF2B5
:10437000A840FEF7C9FDAFF300802588207A4543A9
:104380006089284310F0070F01D0042070BD30462B
:10439000FFF7ABFF0FF2245131F91000FFF785FF53
:1043A000304600F05CF8B4F90C106068014341F449
:1043B0008071E07B002801D041F080413160207A9B
:1043C000042809D1B06840F00400B06020886188FA
:1043D00041EA0041716303E0608840EA0540706390
:1043E0006089401BC0083063B06840F00100B060D5
:1043F000DFF8180415F07F0F09D14FF040417160CC
:10440000006820F0700040F02000B06013E015F06C
:104410003F0F09D14FF000417160006820F070003B
:1044200040F01000B06006E04FF08041716000681D
:1044300020F07000B0600121304600F070F80020DC
:1044400070BD10B50446FFF749FF2046FFF74DFF4A
:104450000FF2684131F91000BDE8104027E710B5B0
:104460000446FFF73BFF0020A060A06840F4004036
:10447000A060A0680004FCD40321204600F03AF8B4
:104480000321204600F04BF8A069A061DFF880030B
:10449000206000206060A0604FF45040A0640020C5
:1044A0002063606310BD10B5040009D14FF4AB72F6
:1044B0000FF2BC310FF26030FEF726FDAFF3008043
:1044C0004FF4A0702080F020608040F60200606011
:1044D000022020724FF4207060811020A081002003
:1044E000A0730120E07310BD002901D0C2627047A3
:1044F0008262704730B40022036823F48074046041
:10450000CD0700D52022890701D542F0400214438F
:10451000046001681142FCD1036030BC7047002286
:10452000CB0701D54FF48042890701D542F40052F0
:1045300081681143816081681142FCD1704710B4D9
:104540000023CC0701D54FF48053890701D543F4EC
:104550000063002A816802D00B43836002E021EAF5
:104560000303836010BC704703680A0C53EA0243DC
:104570000360836801F0FF0213438360826C890942
:1045800001F47F7111438164704703680A0C33EAB8
:1045900002430360836801F0FF0293438360826CEF
:1045A000890901F47F7122EA010181647047F8B53D
:1045B00005460C4616461F46002C09D140F2CD1286
:1045C0000FF2AC210FF25020FEF79EFCAFF30080FB
:1045D000002224212046FEF777FFE6612762284665
:1045E000FFF783FE8B4941F820400FF269124A60C1
:1045F0000FF2CC2131F91000FFF75BFE0020F2BD75
:1046000038B505460C0009D14FF4F3720FF2602162
:104610000FF20420FEF778FCAFF300802146284615
:10462000FFF786FE022802D240F6543032BD002049
:1046300060762076A86C20F4402040F40020A86426
:1046400021462846FFF778FE21462846FFF774FEEC
:1046500001212846FFF763FF0120A076E0764FF4A2
:10466000C0112846FFF780FF2846FFF72CFE0020E8
:1046700032BD38B505460C0009D140F20A220FF2CE
:10468000F0110FF29410FEF73FFCAFF300802846C4
:10469000FFF724FE4FF4C0112846FFF776FF0020F5
:1046A000A076E076E07DA0750020207632BDF8B5DA
:1046B00005460C461646617D207DFFF72DFE042839
:1046C00002D140F65630F2BD2F6827F4C0102860A2
:1046D000607D44F82060607DFFF725FE60752F60E7
:1046E000A07E00281BD0E07E002818D12146284655
:1046F000FFF71EFE022812D30120E076002060762C
:1047000021462846FFF718FE21462846FFF714FEEB
:1047100001212846FFF703FF2846FFF7D4FD0020BC
:10472000F2BD70B505460C46207DE17D884202D180
:1047300040F6553070BD2E6826F4C0102860207DEC
:1047400054F820001060207DFFF7EDFD20752E60ED
:10475000002070BD70B505460E46A869A86100F43A
:10476000C011B1F5C01F1ED12846FFF7B7FD307E3E
:10477000002810D0F07D56F82010A962317E022961
:1047800007D1FFF7D0FD56F82000E86200207076D0
:1047900001E00120707601212846FFF7C0FE28467F
:1047A000BDE870408FE510F4C01F23D0F07DFFF707
:1047B000BAFDF075307E401E3076F469002C05D0CD
:1047C000336A40F6573231462846A047307E0028EB
:1047D00005D12846FFF782FD0020F07670BD3146F6
:1047E0002846FFF7A5FD002804D031462846BDE83D
:1047F0007040A1E570BD074A116803485268104730
:1048000000E100E068C00F4000C02B4008C02B4012
:1048100000080040681900207465737400000000EF
:10482000463A5C694D585254313035307072675C8D
:104830004C515F5254313035324C43443230313870
:10484000303632325C4C5175736572466C696573F3
:104850005C646576696365735C64726976657273BE
:104860005C66736C5F636C6F636B2E6800000000A6
:10487000463A5C694D585254313035307072675C3D
:104880004C515F5254313035324C43443230313820
:10489000303632325C4C5175736572466C696573A3
:1048A0005C646576696365735C647269766572736E
:1048B0005C66736C5F6373692E6300000202000024
:1048C0002B00FEE7103A07D330B4B1E83810103AA5
:1048D000A0E83810F9D230BC530724BFB1E8081063
:1048E000A0E8081044BF51F8043B40F8043BD2074D
:1048F00024BF31F8022B20F8022B44BF0B78037041
:104900007047121F17D35B0009D151F8043B20F800
:10491000023B1B0C121F20F8023BF6D20BE051F8B1
:10492000043B00F8013B1B0A20F8023B1B0C121F42
:1049300000F8013BF3D238BF121D521E24BF11F8FC
:10494000013B00F8013BF8D87047FEE7DFF8B00202
:104950000068C00602D5DFF8AC027047DFF8A80295
:1049600000687047090110EB11500068000C00F05E
:10497000010070470A46120110EB1250006801F066
:104980001F01C84000F001007047090110EB1150F1
:104990000068C0F38130002800D1D7E700207047BD
:1049A000DFF86822116821F4404103799B0303F486
:1049B0004043194341F4803111601368DFF850120D
:1049C0000B40007800F07F00034343F40053136072
:1049D00010680028FCD5106820F480301060704703
:1049E00010B40023DFF83422116821F44041047B25
:1049F000A40304F44044214341F480311160416830
:104A000021F040411161816821F040411162146838
:104A1000DFF8FC110C40017801F07F010C4344F4F5
:104A200000544078022812D004280BD0082804D063
:104A300010280FD14FF040430EE044F400244FF013
:104A4000404309E044F480144FF0404304E044F450
:104A5000002401E044F48014DFF8BC01016821F077
:104A600040410B430360146010680028FCD51068B7
:104A700020F48030106010BC704770B50646DFF837
:104A80008C5131462846FFF775FF002801D10020E0
:104A900070BD31462846FFF778FF04463146284668
:104AA000FFF760FF002840F096800D3E17D04FF4CE
:104AB0008010361A2BD0361A00F08480361A14D0A3
:104AC0004FF48000361A2AD04FF44010361A4AD0DC
:104AD0004FF48000361A6AD0083E71D07AE0286818
:104AE00000F07F004443640875E0286DA0FB0401DA
:104AF0002A6E002301F05CFE2A6BD20702D5162233
:104B0000544302E004EB84029400041963E0286932
:104B1000800701D5162000E0142044435BE02E6F8F
:104B200006F07F063E4A1068A0FB040112690023CC
:104B300001F03EFE06FB0404286F10F4C01003D001
:104B4000B0F5002F02D002E0A40800E0640832486B
:104B5000016830480140B1F5004F02D0814224D0B5
:104B600039E0640837E02E4E356A05F07F05306B7A
:104B7000A0FB0401326C002301F01AFE05FB0404C3
:104B8000306A10F4C01003D0B0F5002F02D002E05C
:104B9000A40800E064082048006800F04040B0F13C
:104BA000804FDED0B0F1404F15D1A40813E01C486F
:104BB000006E00F003000FF2740151F820400AE08B
:104BC000184C08E0286A800701D5162000E0142060
:104BD000444300E00024204670BD10B4C000124AD7
:104BE0001468BF23834024EA0303802484401C43C9
:104BF000146001F03F0181401943116010BC7047FF
:104C000070820D4000366E016019002000800D405A
:104C100080EFFFFF0080800070810D40A0800D407C
:104C200080800D4040787D0100810D4040787D01FD
:104C300080F0FA0200E1F5054059730770B50446AB
:104C40000D462646360A04F01F04072E09D340F20B
:104C5000D7320FF2CC110FF2C010FEF755F9AFF3B7
:104C60000080064800EB860001680322A2409143C1
:104C700005FA04F40C43046070BD000068C00F40E6
:104C80000321DBE738B504460D46202D08D3CA22A0
:104C90000FF2DC110FF28010FEF736F9AFF300804F
:104CA0002068E84000F0010032BD77E010B5002434
:104CB000062C07D20FF2502151F82410814201D066
:104CC000641CF5E7062C08D354220FF2F0110FF202
:104CD0004810FEF719F9AFF30080204610BDF8B573
:104CE00004460D461646FFF7E1FF0FF2342131F975
:104CF0001000FFF7C5FF0127AF40F9436069084086
:104D000060613078002803D160680140616007E08D
:104D100072782946204600F009F86068074367600A
:104D2000B27829462046BDE8F840BEE77CB5044687
:104D30000D461646202D08D374220FF280110FF273
:104D4000D800FEF7E1F8AFF30080012000FA05F586
:104D5000002E206803D120EA0505256073BD0543B8
:104D6000256073BD38B504460D46202D08D380223A
:104D70000FF248110FF2A000FEF7C6F8AFF3008063
:104D800029462046FFF77EFF024682F00102D2B29A
:104D900029462046BDE83840C8E7000030B4012469
:104DA00004FA01F5C369AB43C361102902D200F1D3
:104DB0000C0302E000F110031039521E042A29D816
:104DC000DFE802F0030A131E25001A6803244800D6
:104DD0008440A2431A601DE0480019680322824003
:104DE000914384400C431C6014E04800196803227E
:104DF00082409143022202FA00F00843186009E061
:104E00001A6803244800844022431A6002E0C16902
:104E10000D43C56130BC70477465737400000000B9
:104E2000463A5C694D585254313035307072675C87
:104E30004C515F5254313035324C4344323031386A
:104E4000303632325C4C5175736572466C696573ED
:104E50005C646576696365735C64726976657273B8
:104E60005C66736C5F636C6F636B2E6800000000A0
:104E7000463A5C694D585254313035307072675C37
:104E80004C515F5254313035324C4344323031381A
:104E9000303632325C4C5175736572466C6965739D
:104EA0005C646576696365735C6472697665727368
:104EB0005C66736C5F6770696F2E6800463A5C6968
:104EC0004D585254313035307072675C4C515F52DE
:104ED00054313035324C434432303138303632324E
:104EE0005C4C5175736572466C6965735C6465767C
:104EF000696365735C647269766572735C66736C12
:104F00005F6770696F2E63000000000000801B4027
:104F100000C01B4000001C4000401C4000000C4032
:104F2000FFFF1A011E001A020C031E0170B5044691
:104F30000D462646360A04F01F04072E09D340F218
:104F4000D7320FF22C01DFF84405FDF7DDFFAFF398
:104F50000080DFF83C0500EB860001680322A240D8
:104F6000914305FA04F40C43046070BD0000000096
:104F7000463A5C694D585254313035307072675C36
:104F80004C515F5254313035324C43443230313819
:104F9000303632325C4C5175736572466C6965739C
:104FA0005C646576696365735C6472697665727367
:104FB0005C66736C5F636C6F636B2E68000000004F
:104FC0000321B3E7022101610021016170470269F9
:104FD000520851EA420101617047406970474161DE
:104FE000704701F00301120402F44032114381655D
:104FF0007047002A03D0C36D03F007031360002934
:1050000003D0C06DC0F302400860704780B5002136
:1050100000E0491C052907D20FF2240252F8212092
:105020008242F6D1084602BDC222DFF86814DFF8DA
:105030005C04FDF769FFAFF30080002002BD0000B3
:105040000000000000003F4000403F4000803F4023
:1050500000C03F40F8B505460E4617461C46002DD9
:1050600008D1D222DFF82C14DFF82004FDF74CFF22
:10507000AFF30080002C08D1D322DFF81814DFF83A
:105080000C04FDF741FFAFF30080B5FBF4F04FF4E3
:105090007A71B0FBF1F0DFF80C14B1FBF0F10020F5
:1050A000421C01FB02F3B34203D2BA4201D21046C2
:1050B000F6E7002805D106EB860252008A4200D3AB
:1050C0000120F2BD70B505460C46002614F470545C
:1050D00025D0A00402D540F28A3618E0200502D57A
:1050E00040F2893613E0600502D540F286360EE0C4
:1050F000E00402D540F2873609E04FF48772DFF80A
:105100009413DFF88803FDF7FFFEAFF3008021461C
:105110002846FFF764FF286940F440702861304654
:1051200070BD1CB504466A4600212046FFF761FFAA
:105130000098C0F1040000902046FFF74EFF0146A2
:105140002046FFF7BFFF002803D100980028EAD0CF
:10515000002016BD80B5FFF740FF00F04070B0F1B1
:10516000007F02D14FF4617002BD002002BD012119
:10517000017000218170012141700021C170017115
:10518000DFF8241381600021C16001610175417560
:105190008175C1750121017670472DE9FC410446F6
:1051A0000D461646FFF732FF0FF2EC2131F91000E1
:1051B000FFF706FF2046FFF705FF6878401E804195
:1051C000C00FA978800040EAC1002061216AC908A7
:1051D000A87D50EAC101287E400000F00200014392
:1051E000E87D800000F0040001432162616ADFF87D
:1051F000BC0201402879000600F0E0600143E87835
:1052000041EA40216162002211462046FFF7E9FE93
:10521000AA683146204600F03EF8676A07F00707A3
:10522000D4F82880E968002907D03B4640F6FF7291
:105230003046FFF70FFF60F30B08297D002906D0E9
:1052400001230F223046FFF705FF60F31B68697DDD
:10525000002906D001230F223046FFF7FBFE60F342
:105260001348C4F82880296900290FD03B4640F62E
:10527000FF72090A3046FFF7EDFEE16A6FF3132172
:10528000DFF82C2202EA00221143E162297820464D
:10529000BDE8FC419BE62DE9F0470746894692466A
:1052A000002426464FF0FF35D7F8108008F001089B
:1052B0002146FFF78CFE012103E0A0EB0A0012E07B
:1052C0004900812921D2002D1FD00122B9FBF1F321
:1052D00010E002EB420C6044801CB3FBF0F0504540
:1052E000EBD2AAEB0000A84203D20C4616460500FA
:1052F000E6D0521C202AE3D20220B0FBF1F0012AB2
:10530000E7D1801DB3FBF0F0E9E7300200F47C50F8
:10531000012E04D840F0817040F003000CE07100D1
:1053200001F03F01320402F47C121143F60506F04D
:105330007C560E4306433046B864002000E0401C13
:10534000082804DA012181408C42F8D10446786AA9
:10535000C00804F0070454EAC0047C62B8F1000FEE
:1053600004D001213846BDE8F04730E6BDE8F087BB
:1053700070B504460D461646FFF7ECFE002813D123
:105380004FF4FE412046FFF72AFE606A20F4807049
:1053900060622046FFF7C5FE002805D146EA4506B3
:1053A00046F480662666002070BD70B50546FFF79E
:1053B000B8FE040014D14FF400702866002C0FD101
:1053C0002846FFF70AFE064631462846FFF77AFED2
:1053D0000446B005F2D54FF400712846FFF7FFFDF3
:1053E000204670BD70B506460C461546002C09D106
:1053F00040F283220FF230110FF22410FDF784FDEA
:10540000AFF30080002D1ED03046FFF78AFE002843
:105410001AD1681E00F0FF0040F48070306604E08E
:10542000306F410405D404F8010B2846451E0028BE
:1054300009D03046FFF7D1FD01463046FFF742FE66
:105440000028EDD070BD002070BD70B505460C463B
:105450001646002C0DD140F2BF220FF2CC010FF204
:10546000C000FDF751FDAFF3008002E014F8010B1E
:1054700028663046461E002805D02846FFF751FE14
:105480000028F3D070BD002070BD000020550060E2
:1054900068C00F4028550060FFFF060208020A029C
:1054A0001806000040420F00A0860100FFFDFFF833
:1054B00000FF0F0038B504460D462069C00708D527
:1054C00012480268002A04D000EB8500416820469B
:1054D0009047D4F81001C0070AD50C488269002A09
:1054E00006D000EB8500C1692046BDE83840104772
:1054F00031BD01210648DDE702210648DAE7032134
:105500000548D7E704210548D4E7000078190020B2
:1055100000003F4000403F4000803F4000C03F400F
:105520007465737400000000463A5C694D5852542B
:10553000313035307072675C4C515F5254313035C8
:10554000324C434432303138303632325C4C517553
:10555000736572466C6965735C64657669636573CF
:105560005C647269766572735C66736C5F6C70699B
:1055700032632E630000000070B504460D462646D7
:10558000360A04F01F04072E09D340F2D7320FF277
:1055900080110FF27410FDF7B7FCAFF3008049489B
:1055A00000EB860001680322A240914305FA04F44F
:1055B0000C43046070BD0321DEE710B500244249AE
:1055C000002C03D1884201D00124F9E7002C08D037
:1055D00073220FF28C110FF23010FDF795FCAFF330
:1055E0000080204610BD7CB505460C0008D17A220B
:1055F0000FF26C110FF21010FDF786FCAFF3008074
:10560000207D052808D37B220FF254110FF2F800F9
:10561000FDF77AFCAFF300802846FFF7CEFF064681
:105620000FF28C1030F91600FFF7C5FF0FF284104F
:1056300030F91600FFF7BFFF284600F04BF823496A
:10564000207D51F83020B4F91600024342F42022A4
:1056500042F020022A60081D217D50F831002861A7
:105660006088218841EA00412963E168E0790143CB
:10567000174801432967E07961880818217A4018A2
:10568000617A4018C5F88000217905F190006279AF
:10569000A3799A182388D218521842EA81420260EC
:1056A000A17922795118627AE3799A1842EA014283
:1056B0000261218841F48021016220692864206907
:1056C000286573BD68C00F4000802B40000000209B
:1056D0000000301018B44FF4807100914FF08042F8
:1056E000826001684900FCD44FF0004343600168C8
:1056F0000029FCD500994C1E00940029FAD1836042
:10570000826011BC70470000746573740000000073
:10571000463A5C694D585254313035307072675C8E
:105720004C515F5254313035324C43443230313871
:10573000303632325C4C5175736572466C696573F4
:105740005C646576696365735C64726976657273BF
:105750005C66736C5F636C6F636B2E6800000000A7
:10576000463A5C694D585254313035307072675C3E
:105770004C515F5254313035324C43443230313821
:10578000303632325C4C5175736572466C696573A4
:105790005C646576696365735C647269766572736F
:1057A0005C66736C5F656C636469662E6300000001
:1057B0001C0200000A03FEE770B504460D462646AB
:1057C000360A04F01F04072E09D340F2D7320FF235
:1057D000D4110FF2C810FDF797FBAFF300806648B5
:1057E00000EB860001680322A240914305FA04F40D
:1057F0000C43046070BD0321DEE710B500245F494F
:10580000002C03D1884201D00124F9E7002C08D0F4
:1058100089220FF2E0110FF28410FDF775FBAFF350
:105820000080204610BD10B50446FFF7E6FF0FF2DA
:10583000102131F91000FFF7DEFF204600F003F8D9
:105840000020206010BD4FF0004141604FF040410A
:105850008160704770B4039C00F19005484EC2F31C
:105860000D0206EA014002432A60C4F30D0406EA71
:10587000034634432C6170BC704738B505460C00B4
:1058800009D140F235120FF26C110FF21010FDF732
:105890003BFBAFF3008005F1B00001688909627835
:1058A000237803F01F0343EA421353EA8111016096
:1058B00061680161A1680162E1680163218A016494
:1058C00031BD30B4029C2E4DC2F30D0205EA0141F8
:1058D0000A430267C4F30D0405EA03452C43C0F8EC
:1058E000804030BC704738B505460C0009D14FF4F4
:1058F000AF720FF200110FF2A400FDF705FBAFF33A
:105900000080296A1F480140207800F01F000143F1
:105910006078000200F440700143296260682863E7
:10592000A0682864A0892865208A401EC0F30D0065
:10593000E189491E124A02EA01421043286631BD3C
:1059400081B000F5D07200290AD1106800F0C04083
:1059500040F0806010600C4810610C48106209E053
:10596000116801F060410A48014311600948106163
:105970000948106201B0704768C00F4000402B40DA
:105980000000FF3FE0FCFFFF080223019B076B07BD
:10599000F001AB84040298019C07300774657374AE
:1059A00000000000463A5C694D58525431303530A1
:1059B0007072675C4C515F5254313035324C434405
:1059C00032303138303632325C4C51757365724644
:1059D0006C6965735C646576696365735C64726940
:1059E000766572735C66736C5F636C6F636B2E6855
:1059F00000000000463A5C694D5852543130353051
:105A00007072675C4C515F5254313035324C4344B4
:105A100032303138303632325C4C517573657246F3
:105A20006C6965735C646576696365735C647269EF
:105A3000766572735C66736C5F7078702E630000BD
:105A40001E02FEE72DE9FE4305460E461746984620
:105A5000DDF828900B9C20460190CDF800902A4656
:105A60002846FEF7C1FA20460190CDF80090434643
:105A70003A4631463846FEF7B7FA20460190CDF84F
:105A8000009033463A4631462846FEF7ADFA019477
:105A9000CDF8009043463A4641462846FEF7A4FA20
:105AA000BDE8F7832DE9F84F064615461446A04297
:105AB0006DD31746C6F5F070B84268DBADF800103C
:105AC0000846904263D3C0F58870B8425FDB9846C1
:105AD00000245AE06D1EADB207FB07F0401C04FB2A
:105AE000140005FB05F18842F4DB04EB0609BDF860
:105AF00000B0ABEB050B4246594689B2484680B22E
:105B0000FEF746FAA6EB040A4246594689B25046C9
:105B100080B2FEF73DFABDF800B0AB4442465946AC
:105B200089B2504680B2FEF733FA4246594689B2EE
:105B3000484680B2FEF72CFA05EB0609BDF800B026
:105B4000ABEB040B4246594689B2484680B2FEF799
:105B50001FFAA6EB050A4246594689B2504680B262
:105B6000FEF716FABDF800B0A3444246594689B282
:105B7000504680B2FEF70CFA4246594689B2484672
:105B800080B2FEF705FA641CA4B2A742A4DABDE80D
:105B9000F18F2DE9F84304461546AC4225D314464F
:105BA000C0F5F075A54220DB0D461646B5421CD364
:105BB000C1F58875A54218DBDDF820804FF000099B
:105BC00004460E4615461F460AE0404600903B46F6
:105BD0004A4692B231462046FFF764FF09F10109B7
:105BE0002846494689B28842EFD2BDE8F1832DE9C3
:105BF000F84F04460A9FDDF82C804FF0000912E0B0
:105C0000324609EB050189B20AEB040080B2FEF7C7
:105C1000BFF90AF1010A0EE0BDE8F18F29465A46A4
:105C2000334609F10109B9F1100FF5D21E4693462A
:105C30000D464FF0000ABAF1080FEFD26F4800EBA3
:105C40000B104844A0F500700078012101FA0AF118
:105C50000842D5D140460028DBD03A4609EB050181
:105C600089B20AEB040080B2FEF792F9D1E72DE980
:105C7000FE4305460E4617469846DDF828900B9CD5
:105C80000CE0083520460190CDF80090434617F807
:105C9000012B3146284680B2FFF7A9FF387800284B
:105CA000EFD1BDE8F7832DE9F74F8E469C460C9B5C
:105CB0000D9A002603E01030009EB61CB6B2029981
:105CC000895D002967D000240121029D15F8069006
:105CD00001E0A41CA4B24A4F17F80480B8F1800F69
:105CE0005BDBC845F5D127447F7805EB060898F8BB
:105CF00001804745EDD102950096240121460129F6
:105D0000D9D04FF0000908E02046AE46DC463346C5
:105D10003A464146491C09F10109B9F1100F2ADA46
:105D20004FF0000A04467546E3461E46174688466D
:105D3000BAF1080FE8DA334830F81800012101FA07
:105D40000AF108420BD1380012D032460AEB0501A5
:105D500089B209EB040080B2FEF71AF908E05A464E
:105D60000AEB050189B209EB040080B2FEF710F9D5
:105D70000AF1010ADCE74FF000091BE05A460AEB82
:105D80000501083189B209EB040080B2FEF700F981
:105D90000AF1010A1AE0BDE8F78F02950096AEE716
:105DA0002046AE46DC4633463A4608F101084146F5
:105DB00009F10109B9F1100FBFF67DAF4FF0000AEC
:105DC00004467546E3461E4617468846BAF1080F54
:105DD000E6DA0C4830F81800012101FA0AF108420D
:105DE000CCD13800D4D032460AEB0501083189B253
:105DF00009EB040080B2FEF7CBF8C9E7640000208D
:105E000054060020E806002070B50446A40E0246A1
:105E1000120A02F01F0200F0FF0303F1804303F5B2
:105E20007C231D68C0F34C369640B54301EA5031DF
:105E3000C1F30C01914029431960202C09D94FF47A
:105E400064720FF210110FF20410FDF75DF8AFF35A
:105E50000080202C04D037480068E040C007FAD406
:105E600070BD70B50446A40E0246120A02F01F026D
:105E700000F0FF0303F1804303F57C231D68C0F3AA
:105E80004C369640B54301EA5031C1F30C019140C4
:105E900029431960202C09D940F2B5320FF2B40120
:105EA0000FF2A800FDF730F8AFF30080202C04D0EB
:105EB00020480068E040C007FAD470BD00211E4BA6
:105EC00004E000BF521C9A42FBD3491C814201D21C
:105ED0000022F8E7704780B500F072FEFCF7F2FA96
:105EE000FCF72AFB00F03CFF12210020FEF775FEB4
:105EF00000211248FFF7B5FF01211148FFF784FF89
:105F000001211048FFF780FF00210F48FFF7A9FF8C
:105F100000F04AFE00F0C9FAFDF7F4FE022100206D
:105F200000F03AFB0221084600F036FB6420FFF740
:105F3000C5FFF3E748C00F40E093040024EB008066
:105F40001C3000801C2600801CE007807465737480
:105F500000000000463A5C694D58525431303530EB
:105F60007072675C4C515F5254313035324C43444F
:105F700032303138303632325C4C5175736572468E
:105F80006C6965735C646576696365735C6472698A
:105F9000766572735C66736C5F636C6F636B2E689F
:105FA0000000000070B504460D462646360A04F08F
:105FB0001F04072E09D340F2D7320FF2D8310FF267
:105FC000CC30FCF7A1FFAFF30080DFF8900300EBCB
:105FD000860001680322A240914305FA04F40C43B1
:105FE000046070BD0321DDE710B4029C01F00701DD
:105FF000240104F0100421430160002A00D0136042
:1060000010BC70470098002801D0019901607047CA
:10601000E0B503460192009101221421DFF840030C
:1060200001F05DF8C0B20EBDE0B5034601920091EB
:1060300001221421DFF8280301F0ACF807BDF8B500
:1060400084B040F20240FFF7CDFFC64CC64D0020A1
:10605000019000950346024605212046FFF7C4FF44
:106060004DF2B0000190009500231A46052120460C
:10607000FFF7C8FFBD4EBE4A02213046FEF72FFE95
:10608000BC4CBD4D00200190009503460246052101
:106090002046FFF7A9FF4FF44040019000950023F0
:1060A0001A4605212046FFF7ADFFB44F3A460B21B3
:1060B0003046FEF714FE002202213046FEF736FE7F
:1060C0001420FFF7FBFE012202213046FEF72EFED0
:1060D0000020019000950346024605212046FFF767
:1060E00083FF0020019000950346024605212046CB
:1060F000FFF788FF3A460B213046FEF7F0FD3220CD
:10610000FFF7DCFE002001900095034602460521C2
:106110002046FFF777FF042202A948F24010FFF75C
:1061200083FF02A8002101719DF80B100091837874
:1061300042789DF808100FF2AC2001F083F80FF2BE
:10614000C42102A801F092F8002822D102208DF883
:10615000080048F24004012202A92046FFF758FF38
:10616000012202A948F24700FFF75EFF9DF80810E0
:106170000FF2982001F066F80A20FFF79FFE00203A
:106180008DF80800012202A92046FFF741FF0020F8
:1061900000E0012005B0F0BD2DE9F14384B00026F8
:1061A000774D2978491C2970C9B20A2091FBF0F07B
:1061B00000EB8002B1EB420002D00A2980F2A780F6
:1061C00048F24E14012204A92046FFF72DFF9DF846
:1061D000100000060DD59DF8100000F00F000528F6
:1061E00007DC30468DF80400012201A92046FFF7A4
:1061F0000FFF9DF8100010F00F0000F088809DF850
:10620000101001F00F01052900F381800126FF2104
:1062100001FA00F08DF804005A4F97F81C809DF8A1
:106220000400C04340F0C000387738893882788A4B
:1062300078834FF0000941E0387F314601FA09F1D7
:10624000084239D0042202A90FF2E81030F81900F0
:10625000FFF7EAFE07EB49049DF809009DF80810D6
:1062600011EB002020819DF80B009DF80A1011EB26
:1062700000206082608A00904B46228949460FF2D6
:10628000A01000F0DFFF304600904FF47F0328227B
:10629000618A2089FFF77DFC30460090FF2314229D
:1062A000618A2089FFF775FC3046009000230822A0
:1062B000618A2089FFF76DFC09F10109B9F1050F29
:1062C000BADB3220FFF7FAFD388940F2E11188424B
:1062D00004DA788A40F21111884216DB9DF810002A
:1062E00000F00F00012806DD78893881B88A7882AD
:1062F000002028700BE0388A3881788B78828020E3
:106300008DF8100087F81C8001E0002028709DF8AF
:10631000100000F08F0080280ED11A48017F0A0675
:1063200003D501F07F01017706E04FF6FF7202818D
:10633000428201F0E00101772878F12801DB0A2090
:106340002870304605B0BDE8F08380B5FFF777FED2
:106350000D480C49486001BD0000000068C00F40B6
:1063600000003F40C4801F40B4821F4000801B409B
:1063700060000020E8801F40D8821F4058000020A5
:10638000FE19002028000020996100607465737474
:1063900000000000463A5C694D58525431303530A7
:1063A0007072675C4C515F5254313035324C43440B
:1063B00032303138303632325C4C5175736572464A
:1063C0006C6965735C646576696365735C64726946
:1063D000766572735C66736C5F636C6F636B2E685B
:1063E000000000000D0A4354502049443A307825FB
:1063F0003032582530325825303258253032580D39
:106400000A0000003931343700000000446566613D
:10641000756C74205665723A307825780D0A000044
:10642000785B25645D3A25642C795B25645D3A25AB
:10643000640D0A005081588160816881708100007C
:1064400070B504460D462646360A04F01F04072E92
:1064500009D340F2D7320FF208310FF2FC20FCF7DB
:1064600053FDAFF30080AF4800EB860001680322C4
:10647000A240914305FA04F40C43046070BD03216B
:10648000DEE710B4029C01F00701240104F01004BF
:1064900021430160002A00D0136010BC70470098AF
:1064A000002801D00199016070472DE9FE4F40F2AC
:1064B0000240FFF7E4FF9C4C00200190009403464B
:1064C000024605219948FFF7DCFF994D994E0020BF
:1064D000019000960346024605212846FFF7D1FFAA
:1064E000954FDFF8588200200190CDF800800346D8
:1064F000024605213846FFF7C4FFDFF84492DFF873
:1065000044A200200190CDF800A0034602460521D8
:106510004846FFF7B6FF41F2B00BCDF804B0009447
:1065200000231A4605218148FFF7B9FFCDF804B0D2
:10653000009600231A4605212846FFF7B0FFCDF844
:1065400004B0CDF8008000231A4605213846FFF735
:10655000A6FFCDF804B0CDF800A000231A4605210F
:106560004846FFF79CFF784C224609217748FEF702
:10657000B6FB224617217648FEF7B1FB754D224641
:106580001A212846FEF7ABFB22461B21284603B002
:10659000BDE8F04FFEF7A3BB052800D970471CB536
:1065A000DFE800F003203D59BE75080007D1002246
:1065B0000921664802B0BDE81040FEF7B7BB0129CB
:1065C00007D101220921614802B0BDE81040FEF761
:1065D000ADBB022940F0A48009215C48BDE81C4005
:1065E000FEF7C0BB080007D100221721584802B0AF
:1065F000BDE81040FEF79ABB012907D101221721FF
:10660000534802B0BDE81040FEF790BB022940F0AD
:10661000878017214E48BDE81C40FEF7A3BB080049
:1066200007D100221A214B4802B0BDE81040FEF706
:106630007DBB012907D101221A21464802B0BDE8DD
:106640001040FEF773BB02296AD11A214148BDE808
:106650001C40FEF787BB080007D100221B213D48E4
:1066600002B0BDE81040FEF761BB012907D101224D
:106670001B21384802B0BDE81040FEF757BB022985
:106680004ED11B213348BDE81C40FEF76BBB080010
:1066900017D1002209212D48FEF748FB00221721BF
:1066A0002B48FEF743FB2B4C00221A212046FEF715
:1066B0003DFB00221B21204602B0BDE81040FEF742
:1066C00035BB012917D1012209212048FEF72EFBF5
:1066D000012217211E48FEF729FB1E4C01221A2118
:1066E0002046FEF723FB01221B21204602B0BDE815
:1066F0001040FEF71BBB022912D1164C1B2120466D
:10670000FEF730FB1A212046FEF72CFB172110481C
:10671000FEF728FB09210D48BDE81C40FEF722BB0F
:1067200013BD000068C00F40D0821F40E0801F40B2
:1067300098811F4088831F40B4801F40A4821F405F
:10674000B8801F40A8821F406000002000801B40CE
:1067500000C01B4000001C40746573740000000002
:10676000463A5C694D585254313035307072675C2E
:106770004C515F5254313035324C43443230313811
:10678000303632325C4C5175736572466C69657394
:106790005C646576696365735C647269766572735F
:1067A0005C66736C5F636C6F636B2E680000000047
:1067B000B3BBD9B1B2F5803F7DD2022A1ED98C4637
:1067C000B1FBF2F102FB11C31B0443EA1043B3FB1C
:1067D000F2FC02FB1C3380B240EA0343B3FBF2F04D
:1067E00002FB103240EA0C4000237047022A05D910
:1067F0008446B0FBF2F002FB10C270474AB105D1EB
:1068000000F0010249085FEA3000704700220023CF
:10681000704700F051BD0B000200002100207047BE
:10682000904271EB030CF6D3B3F5803F2FD2F0B555
:10683000B3FA83F7B1FA81F4A7F10F0E3D1B534071
:10684000CEF1200602FA0EF2F3415340B5F10F07E4
:1068500046D80F3C2C444140C4F12006A040F141F1
:106860004140B1FBF3F603FB1611A2FB0645001BEA
:10687000A94102D2761E8018594180EA010221FA0C
:106880000EF362FA0EF200215A403046F0BD30B4E9
:10689000B1FBF3FC03FB1C11A2FB0C45001BA9413F
:1068A00003D2ACF1010C8018594130BC02460B46B2
:1068B000604600217047B2F1807F65D3F0B5B2FA2F
:1068C00082F7B1FA81F4C7F10F063D1B22FA06F3F5
:1068D00007F1110EF24120355A40B5F10F07B8D932
:1068E0004140C4F12006A040F1414140B1FBF3FC1E
:1068F00003FB1C11A2FB0C45001BA94103D2BCF1F8
:10690000010C801859410F2F12D30F3FC90341EAE0
:106910005041B1FBF3F603FB1611A2FB0645D4EB85
:10692000C030A94102D2761E8018594146EACC3CBB
:1069300007B34140C7F12006B840F1414140B1FBE7
:10694000F3F603FB1611A2FB0645001BA94102D278
:10695000761E8018594180EA010221FA0EF3C7F130
:10696000200462FA0EF20CFA07F05A402CFA04F1F5
:106970003043F0BD80EA010221FA0EF3002162FAF1
:106980000EF260465A40F0BD8C46B1FBF2F102FBBC
:1069900011C31B0243EA1063B3FBF2FC02FB1C337E
:1069A0001B024CEA002043EA1063B3FBF2FC02FB3B
:1069B0001C331B024CEA002043EA1063B3FBF2FCD9
:1069C00002FB1C331B024CEA002043EA1063B3FBBA
:1069D000F2FC02FB1C324CEA002000237047FEE769
:1069E000BFF34F8FBFF36F8FDFF8481240F0010005
:1069F0000867086840F4803008607047BFF34F8F25
:106A0000BFF36F8FDFF82C02016821F48031016041
:106A1000016F4908490001677047BFF34F8FBFF30B
:106A20006F8F0020DFF810120860BFF34F8FBFF3A5
:106A30006F8FDFF80802016841F400310160BFF395
:106A40004F8FBFF36F8F7047BFF34F8FBFF36F8FC1
:106A5000DFF8E801016821F4003101600020DFF86F
:106A6000D8110860BFF34F8FBFF36F8F704730B4FA
:106A7000DFF8C81100200867BFF34F8FCA6EC2F35A
:106A80004E33DFF8BC51C2F3C90443F6E07000EAAC
:106A9000431040EA847028602046441E0028F4D148
:106AA0001846431E0028EED1BFF34F8F086840F40C
:106AB00080300860BFF34F8FBFF36F8F30BC7047DB
:106AC00010B4DFF8780100210167BFF34F8F016830
:106AD00021F480310160BFF34F8FC16EC1F34E329C
:106AE000DFF86041C1F3C90343F6E07000EA4210E9
:106AF00040EA837020601846431E0028F4D11046F7
:106B0000421E0028EED1BFF34F8FBFF36F8F10BC32
:106B1000704701460A46120A02F01F0201F0FF0008
:106B200000F1804000F57C200068C1F34C319140B9
:106B30000840D040704701460A46120A02F01F0280
:106B400001F0FF0000F1804000F57C200068C1F3F7
:106B50004C3191400840D04070473B480068C00627
:106B600001D53A4870473A480068704738B5394C03
:106B70003948FFF7CEFF00280CD13848FDF77DFFDC
:106B80000621B0FBF1F52046FFF7D5FF401CB5FB11
:106B9000F0F032BDFFF7E1FF05462046FFF7CBFFDF
:106BA000401CB5FBF0F032BD80B5FFF7DFFF0346B8
:106BB00002224FF4E1312A48BDE80050FCF7C4B985
:106BC00010B51E4C2068800301D5FFF73DFF2068FB
:106BD000C00301D5FFF774FFFFF710FF21482249DA
:106BE0000160224941602249016022494160224AF4
:106BF0000260224A42601322026041601421016057
:106C00001F4941601F4A026041601F4901601F49DE
:106C100041601F4901601F4941601F4901601F49D0
:106C200041600420FFF7DCFEFFF721FFBDE81040C4
:106C3000F3E6000024ED00E050EF00E014ED00E08A
:106C400060EF00E074EF00E070820D4000366E01EE
:106C50006019002024E00780242600800D00100029
:106C6000004018409CED00E0100000C03900100307
:106C7000110000803B001003120000603900030384
:106C80002100030315000020160020202300030329
:106C900017000080310003031800E0812900080379
:106CA00070B50446A40E0246120A02F01F0200F05C
:106CB000FF0303F1804303F57C231D68C0F34C36CA
:106CC0009640B54301EA5031C1F30C01914029438C
:106CD0001960202C09D94FF464720FF25C310FF265
:106CE0005030FCF711F9AFF30080202C04D0984805
:106CF0000068E040C007FAD470BD70B50446A40E29
:106D00000246120A02F01F0200F0FF0303F1804363
:106D100003F57C231D68C0F34C369640B54301EA69
:106D20005031C1F30C01914029431960202C09D93D
:106D300040F2B5320FF200310FF2F420FCF7E4F824
:106D4000AFF30080202C04D081480068E040C007E9
:106D5000FAD470BD7F49086070477F49086070476A
:106D600038B54FF40040FFF7F8FF7C48FFF7F2FF1B
:106D70007B4C01212046FFF793FF7A4D01212846E5
:106D8000FFF78EFF7848C1684909490141F01201B7
:106D9000C16001680029FCD50FF2EC20FDF700FE70
:106DA0007248016841F400510160016B41F40051E7
:106DB0000163016F41F400510167016F41F400115B
:106DC000016700216A48FFF798FF00212046FFF77E
:106DD00067FF00212846FFF763FF00216548FFF7A2
:106DE0008CFF03216448FFF788FF01216348FFF708
:106DF00084FF03216248FFF753FF01216148FFF739
:106E00007CFF00216048FFF74BFF01215F48FFF73F
:106E100074FF00215E48FFF743FF01215D48FFF743
:106E20006CFF00215C48FFF73BFF01215B48FFF747
:106E300064FF00215A48FFF733FF04215948FFF748
:106E40005CFF02215848FFF72BFF02215748FFF74C
:106E500054FF02215648FFF723FF03215548FFF74F
:106E60004CFF01215448FFF748FF00215348FFF72A
:106E700017FF03215248FFF740FF01215148FFF758
:106E80003CFF00215048FFF70BFF03214F48FFF75D
:106E900034FF01214E48FFF730FF00214D48FFF736
:106EA000FFFE00214C48FFF728FF00214B48FFF769
:106EB000F7FE01214A48FFF720FF02214948FFF76A
:106EC000EFFE00214848FFF718FF00214748FFF771
:106ED000E7FE01214648FFF710FF03214548FFF771
:106EE0000CFF05214448FFF7DBFE01214348FFF773
:106EF00004FF07214248FFF700FF03214148FFF745
:106F0000CFFE01214048FFF7F8FE07213F48FFF779
:106F1000F4FE03213E48FFF7C3FE01213D48FFF781
:106F2000ECFE07213C48FFF7E8FE03213B48FFF752
:106F3000B7FE00213A48FFF7B3FE3A480168490915
:106F40004901016038483949086031BD000000003E
:106F500048C00F40601900206419002000366E01FF
:106F6000186C0080143900140000084070800D4037
:106F700014FB008014EA00041468008010E0004054
:106F8000187200801CE007801C26008024EB008023
:106F90001C30008024F000801C3100803CEB00801D
:106FA0003C69008018FA0080186400802479008011
:106FB000186E008028E6008028E007801C6A0080A8
:106FC0002CE600802CE007801C6C008028F60080F6
:106FD00028F007801C6E008038F30780383200806C
:106FE00020E207802068008024E0078024260080BB
:106FF00038EC008018F7008038EF008030F900800E
:1070000030F600803074008030EC008030E9008081
:107010003067008028E9008028F900802073008014
:107020000C20008060810D400046C32350190020D1
:107030007465737400000000463A5C694D58525400
:10704000313035307072675C4C515F52543130359D
:10705000324C434432303138303632325C4C517528
:10706000736572466C6965735C64657669636573A4
:107070005C647269766572735C66736C5F636C6F77
:10708000636B2E6800000000640000000000000038
:107090007CB504460D460026012A04D11846000A94
:1070A0008DF800000126069869468B55761CF6B2CD
:1070B0008855761C02E02046FEF777F90022294623
:1070C0002046FEF755F90028F5D1F6B2324669465A
:1070D0002046FEF7BAF92046FEF767F976BDF8B507
:1070E00004460D460027012A04D11846000A8DF8EF
:1070F000000001276846C3557F1C02E02046FEF7CA
:1071000054F9002229462046FEF732F90028F5D12D
:10711000079E069DFFB23A4669462046FEF795F95E
:10712000324629462046FEF790F92046FEF73DF903
:10713000F2BDF8B504460D460027012A04D11846D1
:10714000000A8DF8000001276846C3557F1C02E045
:107150002046FEF72AF9002229462046FEF708F9C4
:107160000028F5D1069EFFB23A4669462046FEF752
:107170006CF92046FEF719F9012229462046FEF750
:10718000F7F8012231462046FEF72CF92046FEF79B
:107190000CF9F2BD2DE9FC4104460D464FF0000804
:1071A000012A05D11846000A8DF800004FF00108A9
:1071B000684600F8083008F1010802E02046FEF7B2
:1071C000F4F8002229462046FEF7D2F80028F5D12F
:1071D000099F089E5FFA88F8424669462046FEF7F6
:1071E00034F92046FEF7E1F8012229462046FEF751
:1071F000BFF83A4631462046FEF7F4F82046FEF73F
:10720000D4F8BDE8F681FEB504460D4616461F4685
:1072100001A800902046FFF78CFF002811D10999A2
:1072200008989DF804208243084010438DF804001C
:107230009DF8040000903B46324629462046FFF761
:1072400027FFFEBD0EB4C0B5024603A80021019081
:10725000009101AB0121044878440C3000F02EF875
:1072600006BC5DF810FB00BF5517000081EA000363
:107270009B0717D1820707D010F8012B11F8013BAB
:10728000BAB19A42F6D014E002680B689A42A2F1B1
:10729000013301BF934313F0803F50F8042F51F89E
:1072A000043FF3D010F8012B11F8013B0AB19A42C8
:1072B000F8D0D01A7047FEE7704700002DE9F84F6C
:1072C00092B081461C98DFF8F8818DF82F001546A2
:1072D00000201E46029108900FF27C4A4FF0FF3BBF
:1072E0000CE025280FD015F8011B0298C84700288C
:1072F000029000F0D2800898401C0890287800285E
:10730000EFD10898DEE0002000210590069107905B
:1073100001E041F0010115F8010F2028F9D02328E0
:107320000CD02B2804D02D2805D0302809D0B6E069
:1073300041F00201EFE741F00401ECE741F0080100
:10734000E9E741F01001E6E700200A9009E00A9819
:10735000404505DA00EB800302EB4302303A0A9223
:107360006D1C2A78A2F130000A28F0D32A782E2A40
:1073700018BFCDF824B023D115F8010F2A2807D162
:10738000306830606D1C50F8042B3060099217E0B3
:107390002D280CBF15F8010B0020002209920AE0ED
:1073A00040B9099A424505DA02EB820403EB440333
:1073B000303B09936D1C2B78A3F130020A2AEFD3DE
:1073C000ADF82C105046297800F0D8F908B115F81E
:1073D000010B8DF82E009DF82E00682804BF297837
:1073E000682903D162208DF82E006D1C0CA8049032
:1073F000324615F8013B01A9484600F091F80028F3
:107400004BD10A980599079A069C401A801A041BCA
:107410009DF82C0041070ED42021002C8DF800107F
:1074200009DD274601236A4601A9484600F07DF997
:1074300098BB7F1EF6D1059B0CAA01A9484600F017
:1074400074F950BB30208DF80000079F002F08DD35
:1074500001236A4601A9484600F067F9E8B97F1E92
:10746000F6D1069B039A01A9484600F05EF9A0B93F
:107470009DF82C0041077FF541AF2021002C8DF8AD
:1074800000107FF73BAF01236A4601A9484600F090
:107490004CF910B9641EF6D130E7584612E02A289C
:1074A0007FF452AF3268326052F8040B3260002829
:1074B0000A9003D540420A9041F004016D1C55E743
:1074C000CBCCCC0C13B0BDE8F08F62280ED068286E
:1074D00019D1002A0A680A60106803D0121D0A60D8
:1074E00000B217E0121D0A6080B217E0002A0A6895
:1074F0000A60106803D0121D0A6040B20AE0121D33
:107500000A60C0B20AE0002A0A680A60106803D064
:10751000121D0A60C1177047121D0A6000217047D2
:1075200070B51C460D46252CEE68114600F084808F
:10753000582C37D0632C0ED0642C18BF692C14D073
:107540006F2C2FD0702C49D0732C53D0752C18BFB2
:10755000782C27D076E02869421C2A610A680A60E4
:1075600052F8043B0A60335476E095F82A00012271
:10757000FFF7ABFF0028286004D52869411C29616A
:107580002D210DE0288D810704D52869411C296132
:107590002B2105E0C0071CD52869411C2961202149
:1075A000315416E095F82A000022FFF78EFF28607C
:1075B00095F8281008070CD5286850B144F0200130
:1075C000782906D1286930213154401C411C296199
:1075D0003454214628693044A86007E008680860F0
:1075E00050F8042B08602A60AE607821284600F02D
:1075F00035F831E00868086050F8044B0860AC606A
:107600003CB90FF25C1000F0C5F84FF0FF34201ABF
:1076100070BD2E6A002E04D52046FBF773FF04468A
:1076200008E032460021204600F0D6F8002814BFBA
:10763000041B34466C610FE02869411C2961252137
:10764000315409E02969481C28612522725421001F
:1076500002D0411C29613454002070BDF0B40246B0
:107660006F29D46808BF082605D041F0200078288B
:1076700014BF0A26102618251768642918BF69291F
:10768000384602D1002F48BF4042F0B9136AE3B92F
:10769000082E39D192F82800010735D5302017255A
:1076A000E07531E000280ED592F8280000F01400B3
:1076B000102808D1536A10691B1A90691B1A591AAD
:1076C0000129A8BF9161F0BC7047B0FBF6F706FB3B
:1076D000170030306D1EC0B23A28A4BFA1F151038B
:1076E00018186055380003D093686719BB42ECD373
:1076F000082E09D192F82800010705D5615D3029CF
:1077000002D06D1E3020605560199060C5F11801DF
:10771000106A51618142C5DA411A91614FF6EF70EA
:10772000118D01401185F0BC7047F8B505460E4635
:1077300017461C46002074B117F8011B7068A84753
:10774000706030B1F069401CF0610020641EF3D11C
:10775000F2BD4FF0FF30F2BD686C747A4C0000004F
:107760007072696E74665F733A206261642025737B
:1077700020617267756D656E740000000278C9B291
:107780008A421AB11CBF10F8012FF9E718BF002078
:107790007047000080B508B90FF21C0005490B685E
:1077A0001BB122220021984701E000F041F822207D
:1077B00002BD0000341A0020636F6E737472616939
:1077C0006E742068616E646C65723A206261642038
:1077D0006D65737361676500C9B2830706D0521E79
:1077E00022D310F8013B9942F7D11FE0083A13D396
:1077F00002F1040241EA012141EA014150F8043B4F
:10780000121F21BF4B40A3F1013C2CEA030C1CF0DA
:10781000803FF3D0C9B2001F083210F8013B521E5E
:1078200028BF91EA030FF8D818BF0120401E704707
:10783000012000F001B800002021090326311820A2
:10784000ABBEF9E781B00949096840F6B832B1FB2F
:10785000F2F205E0009200994B1E00930029FAD144
:107860000146481E0029F5D101B07047501900208B
:10787000F8B504460D46164600200746B7420ED21C
:1078800005EB47004078009015F8173000222121C1
:107890002046FFF7FDFB002801D17F1CEEE7F2BD7B
:1078A00080B580210091122300222121FFF7F0FBF7
:1078B00002BD3EB50446002000E0401C0C284ED21C
:1078C0000FF2245300EB400503EB85052B688B4238
:1078D000F3D16B689342F0D1287A009011230022F3
:1078E00021212046FFF7D4FB687A0190C020009048
:1078F0000D23002221212046FFF785FC0020009067
:107900002B23024621212046FFF7C2FBA87A0090D4
:107910003323002221212046FFF7BAFB00200090EC
:107920003423024621212046FFF7B2FB00200090BD
:107930002D23024621212046FFF7AAFB00200090BC
:107940002E23024621212046FFF7A2FB652000904E
:107950000E23002221212046FFF79AFB3EBD042082
:107960003EBD1CB500220FF24C5300E0521CD2B2B7
:10797000042A0FD253F832408C42F7D103EBC201F4
:10798000097901911F210091122300222121FFF783
:107990003AFC16BD042016BD2DE9FE430C46002519
:1079A00007683E68A07B0146012903D0002801D06A
:1079B00002290ED1D4F80880C1461FFA89F94FEA8E
:1079C000184840F28120814503DA40F2E1108045F9
:1079D00001DB0420EDE00120B96888470120FFF7B2
:1079E00031FF2846B96888470120FFF72BFF28465A
:1079F000796888470120FFF725FF012079688847CB
:107A00000120FFF71FFF0DF1090000900A232A460D
:107A100021213046FFF78DFB002840F0CA8002A8E4
:107A200000900B232A4621213046FFF782FB0028D5
:107A300040F0BF809DF809009DF8081041EA002140
:107A400047F22170814201D00120B2E03046FFF7B9
:107A500027FF0220FFF7F6FE31220FF2B041304639
:107A6000FFF706FF002840F0A480FA68217D304629
:107A7000FFF71FFF002840F09C8021683046FFF789
:107A800070FF002840F09580A07B02280BD12020B9
:107A90000190009012232A4621213046FFF7B3FBC4
:107AA00009F1020909E028460190202000901223E4
:107AB0002A4621213046FFF7A6FB2069C10700D4E2
:107AC0000825410701D445F00205800701D445F09F
:107AD0001005A07B012801D145F020050095152354
